:020000040000FA
:100000004004FF1F25040000C50400003304000065
:10001000350400003704000039040000000000002F
:100020000000000000000000000000003B04000091
:100030003D040000000000003F04000041040000F7
:100040009504000043040000430400004304000042
:100050004304000043040000430400004304000084
:100060004304000043040000430400004304000074
:100070004304000043040000430400004304000064
:100080004304000043040000430400004304000054
:100090004304000043040000430400004304000044
:1000A0004304000043040000430400004304000034
:1000B0004304000043040000430400004304000024
:1000C0004304000043040000430400004304000014
:1000D00043040000C508000043040000430400007E
:1000E00043040000430400004304000043040000F4
:1000F00043040000430400004304000043040000E4
:10010000750700004304000043040000430400009E
:1001100043040000430400004304000043040000C3
:1001200043040000430400004304000043040000B3
:10013000B1070000D507000043040000430400009D
:100140004304000043040000D508000043040000FD
:100150004304000043040000430400004304000083
:100160004304000043040000430400004304000073
:100170004304000043040000430400004304000063
:100180004304000043040000430400004304000053
:1003F000430400004304000043040000FFFFFFFF2C
:10040000FFFFFFFFFFFFFFFFFFFFFFFFFEFFFFFFFD
:10041000DFF80CD000F02CF800480047190D000060
:100420004004FF1F72B60748804762B6064800477F
:10043000FEE7FEE7FEE7FEE7FEE7FEE7FEE7FEE794
:10044000FEE7FEE79D0800001104000040EA0103FA
:100450009B0703D009E008C9121F08C0042AFAD27A
:1004600003E011F8013B00F8013B521EF9D270473E
:10047000064C074D06E0E06840F0010394E80700F1
:1004800098471034AC42F6D3FFF7C6FFCC180000F3
:10049000EC1800000348406A40F00100014948623E
:1004A00070470000008000404CF220500449C88191
:1004B0004DF62810C8814FF4E9700880704700009D
:1004C00000200540704710B5002000F001F810BD75
:1004D00070B50646002415E004F1B001C8B200F082
:1004E00001FA002000F0FEF9102000F0FBF90025D1
:1004F00004E0304600F0FFF9681CC5B2802DF8DB3F
:10050000601CC4B2082CE7DB70BD000010B52F4999
:10051000012000F007FB642000F058FCAE2000F042
:10052000E1F9202000F0DEF9102000F0DBF9B02026
:1005300000F0D8F9C82000F0D5F9002000F0D2F979
:10054000102000F0CFF9402000F0CCF9812000F01D
:10055000C9F9FF2000F0C6F9A12000F0C3F9A620D8
:1005600000F0C0F9A82000F0BDF93F2000F0BAF972
:10057000A42000F0B7F9D32000F0B4F9002000F077
:10058000B1F9D52000F0AEF9F02000F0ABF9D92098
:1005900000F0A8F9222000F0A5F9DA2000F0A2F975
:1005A000122000F09FF9DB2000F09CF9202000F0E1
:1005B00099F98D2000F096F9142000F093F9AF20FE
:1005C00000F090F9FFF77FFF10BD0000801A0600D1
:1005D00010B58D2000F086F9142000F083F9AF20CB
:1005E00000F080F910BD70B504460D4605F1B0016C
:1005F000C8B200F077F9102141EA141000F072F946
:1006000004F00F0141F0010000F06CF970BD000032
:100610002DE9F0470646894617469A464FF00008EE
:1006200000240025BAF1010F03D0BAF1020F5ED108
:1006300025E020E0785D203800F0FF087E2E04DD04
:10064000002609F1010000F0FF0949463046FFF796
:10065000CAFF002409E008EB4801264A02EB4101E9
:10066000085D00F048F9601CC4B2062CF3DBB01D35
:10067000C6B2681CC5B2785D0028DBD137E032E035
:10068000785D203800F0FF08782E04DD002609F19F
:10069000010000F0FF0949463046FFF7A4FF00249F
:1006A00007E004EB0811144A505C00F024F9601CC8
:1006B000C4B2082CF5DB09F10100C1B23046FFF7E6
:1006C00092FF002408E004EB081108310A4A505C4C
:1006D00000F011F9601CC4B2082CF4DB06F108002C
:1006E000C6B2681CC5B2785D0028C9D100BF00BF82
:1006F000BDE8F087A8100000D012000010B5FFF789
:1007000067FF02230BA200212320FFF781FF0123B3
:100710000BA203210220FFF77BFF01230EA205217C
:100720000C20FFF775FF012310A207213020FFF7EF
:100730006FFF10BD554C756F546573740000000059
:10074000436865636B20666F7220493243204F4CCB
:1007500045442E2E2E00000053434C2D43313020B3
:100760002C205344412D43313100000046696E6511
:100770002100000010B5012000F004F909490860CB
:10078000022000F0FFF808490860012000F0F2F8AC
:10079000022000F0EFF80548006840F0010103482E
:1007A000016010BD3400FF1F3800FF1F0C710340B3
:1007B00010B50748006800F48010B0F5801F02D122
:1007C0009A2000F08DF94FF0FF300149086010BD0C
:1007D000A0A004404FF0FF300149086070470000BE
:1007E000A0B0044010B54FF0FF30294948642948B3
:1007F000407820F00200274948700846407840F0D1
:1008000020004870BA2008700846C07800F01F0029
:10081000C8700846407900F0BF00487100BF1D480D
:10082000807900F010000028F9D100BF19488079C4
:1008300000F00C000828F9D117480468006840F45B
:100840007F001549086000F06FF81348046000BF8E
:100850001048807900F020000028F9D000BF0D4832
:10086000807900F040000028F9D01A20094908706A
:1008700000BF0848807900F00C000C28F9D100BFB7
:100880000448807900F040000028F9D010BD000035
:10089000008004400040064000F0014010B50848C8
:1008A000006840F4700006490860FFF7FDFDFFF79F
:1008B00099FF01221146042000F0A8F810BD0000A5
:1008C00088ED00E002480079014800797047000097
:1008D00000D00640024800790148007970470000C6
:1008E00000A00E4010B504462346002278210120C6
:1008F00000F0B0F910BD10B504462346402278211F
:10090000012000F0A7F910BD02E008C8121F08C1BD
:10091000002AFAD170477047002001E001C1121F80
:10092000002AFBD170470000002323B1012B07D020
:10093000022B0FD109E04FF09372042054210EE0F6
:100940004FF093720420582109E04FF09372042075
:100950005C2104E04FF093720420542100BF00BFDB
:10096000024B5A64024B1871597170470080044061
:10097000004006400021024A52F820205160704792
:10098000C80F00000146034850F82100406800B23B
:1009900070470000C80F000010B51748407900F0FC
:1009A0001F001030322110FB01F11348007900F0D4
:1009B0000700401CB1FBF0F04008104908601048E7
:1009C000406C012101EB10700C490968B1FBF0F09B
:1009D0000C4908600A48406CC0F30360401C07499A
:1009E0000968B1FBF0F0084908604FF4E1310220DA
:1009F00000F0FEF910BD0000004006400000FF1F9F
:100A0000008004400400FF1F0800FF1F7CB5431155
:100A1000019300F01F0300932E4B9B6B9DF8045035
:100A20004FF40074AC4023432A4CA3632A4C9DF836
:100A3000045054F825409DF8005004EB85031C68D1
:100A400024F4E0641C60244C9DF8045054F82540C4
:100A50009DF8005004EB85031C6844F480741C600E
:100A600071B11E4C9DF8045054F8254004F1140354
:100A700064699DF800600125B5402C431C600DE0C1
:100A8000164C9DF8045054F8254004F11403646991
:100A90009DF800600125B540AC431C60C9B162B14E
:100AA0000E4C9DF8045054F825301C689DF80060E9
:100AB0000125B5402C431C600BE0084C9DF8045008
:100AC00054F825301C689DF800600125B540AC4302
:100AD0001C607CBD00800440D80F0000EC0F0000BB
:100AE0000CB54111019100F01F0100919DF800200B
:100AF00001219140034A9DF8043052F82320D1602F
:100B00000CBD0000EC0F000008B54FF4C870009059
:100B100000BFBDF80000411E89B200910028F8D145
:100B200008BD00002DE9F04FA1B00646894680229D
:100B3000424901A8FFF78AFC00BF40254FF6FF7B22
:100B400086B93F48406B40F040003D49486340F261
:100B50002321222000F0EAF840F22321232000F094
:100B6000E5F80FE03648406B40F0800034494863B8
:100B700040F223214A2000F0D9F840F223214B20F3
:100B800000F0D4F82F48006800EB4001C1EBC01022
:100B90004CF25031B1EBC00F01D300240CE02948D6
:100BA000006800EB4001C1EBC0102749B1EBC00F5A
:100BB00001D3012400E00224224801682348414374
:100BC0000120A04000FB09F0B1FBF0F01FFA80FA11
:100BD00013E0681EC5B201A931F81510AAEB010097
:100BE000002801DB014600E041428FB20FB9A84660
:100BF00005E05F4501DAA846BB46002DE9D100BFFC
:100C0000C02000EA841008F03F010843104951F861
:100C10002610487080200E4951F826108870012057
:100C2000A04001A931F81810484306490968074A4D
:100C30005143B1FBF0F021B0BDE8F08F001000008F
:100C4000008004400800FF1FA086010040420F0002
:100C50001000FF1F70B504460D461E462D4850F883
:100C60002400807840F030002A4951F82410887020
:100C7000284850F82400057100BF264850F8240089
:100C8000C07800F002000028F7D0224850F8240075
:100C9000C07840F002001F4951F82410C8701D4868
:100CA00050F82400027100BF1A4850F82400C078A0
:100CB00000F002000028F7D0164850F82400C07851
:100CC00040F00200134951F82410C870114850F840
:100CD0002400067100BF0F4850F82400C07800F0CF
:100CE00002000028F7D00B4850F82400C07840F0EC
:100CF0000200084951F82410C870064850F8240032
:100D0000807820F03000034951F824108870FFF7F4
:100D1000FBFE70BD1000FF1FFFF73EFEFFF7F6FB66
:100D2000FFF7ECFC62B600BFFEE700003CB54211E5
:100D3000019200F01F020092164A926B9DF8044047
:100D40004FF40073A3401A43124B9A639DF800308E
:100D500001229A40104B9DF8044053F82430C3F808
:100D6000A0200D4A9DF8043052F823209DF8003051
:100D700042F82310094B9DF8044053F8243003F146
:100D800014025B699DF800500124AC40A34313603A
:100D90003CBD000000800440801000009410000062
:100DA00000B9704700214FF0E022116111464861FF
:100DB000002191610521116100BF4FF0E021096917
:100DC00001F480310029F8D000BFEAE700B50346FE
:100DD00007E0064909684FF47A7201FB02F0FFF759
:100DE000DFFF181EA3F10103F3D100BD0400FF1FB4
:100DF0003EB504460D46052C59D2DFE804F0031435
:100E0000253647006B48406B40F480606949486371
:100E10004FF440716620FFF789FF4FF4407167205F
:100E2000FFF784FF44E06348406B40F40060614991
:100E300048634FF440718120FFF778FF4FF4407111
:100E40008020FFF773FF33E05A48406B40F4805036
:100E5000584948634FF440716320FFF767FF4FF430
:100E600040716220FFF762FF22E05248406B40F47D
:100E70000050504948634FF440712A20FFF756FF55
:100E80004FF440712B20FFF751FF11E04948806A71
:100E900040F48060474988624FF440714E20FFF76C
:100EA00045FF4FF440714F20FFF740FF00E03EBD8B
:100EB00000BF414850F82400C07820F00C003E49A3
:100EC00051F82410C8703C4850F8240080783A4902
:100ED00051F8241088700CB1012C05D137480068F6
:100EE00037494843029004E0364800683449484393
:100EF000029028010299B1FBF0F080B201900198B4
:100F0000B0F5005F02D341F6FF70019002984000F7
:100F1000B0FBF5F10198A1EB4010009000981F285C
:100F200001D91F200090244850F82400007820F0B8
:100F30001F00214951F8241008701F4850F8240060
:100F400000780199C1F3042108431B4951F824108A
:100F50000870194951F8241001984870164850F843
:100F60002400807A20F01F00134951F82410887261
:100F7000114850F82400807A009901F01F010843BD
:100F80000D4951F8241088720B4850F82400007C59
:100F900040F08800084951F824100874064850F8B9
:100FA0002400C07840F00C00034951F82410C870A8
:100FB00000BF7CE7008004402000FF1F0400FF1FEB
:100FC00040420F000800FF1F0080034000900340D4
:100FD00000A0034000900B400090044000A004409B
:100FE00000B0044000C0044000D0044000F00F40B6
:100FF00040F00F4080F00F40C0F00F4000F10F4074
:101000001400160018001A001C001E002200280000
:101010001C002000240028002C0030003800440070
:101020003000380040004800500058006800800040
:1010300050006000700080009000A000C000F00030
:10104000A000C000E0000001200140018001E0019B
:1010500040018001C0010002400280020003C00381
:10106000800200038003000480040005000680075E
:1010700000050006000700080009000A000C000F28
:101080000090044000A0044000B0044000C00440B0
:1010900000D0044000F00F4040F00F4080F00F40BF
:1010A000C0F00F4000F10F40000000000000000001
:1010B000002F000000000700070000147F147F14B9
:1010C00000242A7F2A12006264081323003649553F
:1010D000225000000503000000001C224100000017
:1010E00041221C000014083E08140008083E0808AD
:1010F000000000A060000008080808080000606008
:101100000000002010080402003E5149453E000046
:10111000427F4000004261514946002141454B3128
:10112000001814127F10002745454539003C4A49F4
:101130004930000171090503003649494936000666
:101140004949291E000036360000000056360000CE
:101150000008142241000014141414140000412249
:10116000140800020151090600324959513E007C21
:101170001211127C007F49494936003E414141220B
:10118000007F4141221C007F49494941007F0909F4
:101190000901003E4149497A007F0808087F0000A4
:1011A000417F4100002040413F01007F081422415F
:1011B000007F40404040007F020C027F007F040817
:1011C000107F003E4141413E007F09090906003E73
:1011D0004151215E007F091929460046494949319C
:1011E0000001017F0101003F4040403F001F2040BF
:1011F000201F003F4038403F00631408146300077D
:101200000870080700615149454300007F414100D3
:1012100000552A552A55000041417F000004020173
:101220000204004040404040000001020400002051
:1012300054545478007F484444380038444444208F
:1012400000384444487F00385454541800087E093C
:1012500001020018A4A4A47C007F08040478000004
:10126000447D4000004080847D00007F10284400C1
:101270000000417F4000007C04180478007C0804D2
:10128000047800384444443800FC2424241800180E
:10129000242418FC007C08040408004854545420FA
:1012A00000043F444020003C4040207C001C204083
:1012B000201C003C4030403C004428102844001CC6
:1012C000A0A0A07C004464544C44141414141414BE
:1012D000000000000000000000000000000000000E
:1012E000000000F8000000000000003330000000A3
:1012F00000100C06100C06000000000000000000AA
:1013000040C07840C0784000043F04043F0404001B
:10131000007088FC08300000001820FF211E00002B
:10132000F008F000E018000000211C031E211E0040
:1013300000F00888700000001E21232419272110C6
:1013400010160E0000000000000000000000000069
:10135000000000E018040200000000071820400010
:1013600000020418E0000000004020180700000000
:10137000404080F0804040000202010F0102020064
:10138000000000F0000000000101011F0101010048
:10139000000000000000000080B0700000000000AD
:1013A0000000000000000000000101010101010136
:1013B00000000000000000000030300000000000CD
:1013C00000000000806018040060180601000000A2
:1013D00000E010080810E000000F102020100F009F
:1013E000001010F8000000000020203F2020000026
:1013F000007008080888700000302824222130007E
:1014000000300888884830000018202020110E0085
:101410000000C02010F8000000070424243F24002E
:1014200000F80888880808000019212020110E0003
:1014300000E0108888180000000F112020110E0015
:1014400000380808C83808000000003F000000000D
:101450000070880808887000001C222121221C00CE
:1014600000E010080810E0000000312222110F00F7
:10147000000000C0C000000000000030300000008C
:1014800000000080000000000000806000000000FC
:101490000000804020100800000102040810200015
:1014A0004040404040404000040404040404040060
:1014B00000081020408000000020100804020100F5
:1014C000007048080808F0000000003036010000F5
:1014D000C030C828E810E0000718272423140B00A8
:1014E0000000C038E0000000203C23020227382022
:1014F00008F8888888700000203F202020110E0006
:10150000C0300808080838000718202020100800FC
:1015100008F808080810E000203F202020100F00E5
:1015200008F88888E8081000203F202023201800B1
:1015300008F88888E8081000203F20000300000019
:10154000C03008080838000007182020221E0200BA
:1015500008F808000008F808203F210101213F2079
:10156000000808F8080800000020203F20200000A4
:1015700000000808F8080800C08080807F00000094
:1015800008F888C028180800203F200126382000CD
:1015900008F8080000000000203F20202020300034
:1015A00008F8F800F8F80800203F003F003F20004E
:1015B00008F830C00008F808203F200007183F0056
:1015C000E01008080810E0000F10202020100F0085
:1015D00008F808080808F000203F21010101000078
:1015E000E01008080810E0000F18242438504F00BD
:1015F00008F8888888887000203F2000030C30207D
:1016000000708808080838000038202121221C00BA
:10161000180808F8080818000000203F2000000003
:1016200008F808000008F808001F202020201F00EC
:101630000878880000C83808000007380E0100004C
:10164000F80800F80008F800033C0700073C030016
:10165000081868808068180820302C03032C30207C
:101660000838C800C83808000000203F20000000EB
:1016700010080808C8380800203826212020180043
:10168000000000FE020202000000007F4040400017
:10169000000C30C000000000000000010638C0004F
:1016A00000020202FE000000004040407F000000F7
:1016B000000004020202040000000000000000001C
:1016C000000000000000000080808080808080801A
:1016D0000002020400000000000000000000000002
:1016E00000008080808000000019242222223F20F8
:1016F00008F8008080000000003F112020110E003B
:101700000000008080800000000E112020201100C9
:10171000000000808088F800000E112020103F207B
:101720000000808080800000001F222222221300FF
:10173000008080F0888888180020203F202000004A
:101740000000808080808000006B949494936000FF
:1017500008F8008080800000203F210000203F200A
:1017600000809898000000000020203F202000000A
:10177000000000809898000000C08080807F0000FA
:1017800008F8000080808000203F24022D302000D7
:10179000000808F8000000000020203F2020000082
:1017A0008080808080808000203F20003F20003F9C
:1017B0008080008080800000203F210000203F20AA
:1017C0000000808080800000001F202020201F005B
:1017D000808000808000000080FFA12020110E008A
:1017E0000000008080808000000E112020A0FF807B
:1017F000808080008080800020203F212000010028
:10180000000080808080800000332424242419007C
:10181000008080E0808000000000001F2020000089
:101820008080000000808000001F202020103F20CA
:10183000808080000080808000010E30080601005A
:1018400080800080008080800F300C030C300F00FF
:1018500000808000808080000020312E0E3120002A
:10186000808080000080808080818E70180601005A
:1018700000808080808080000021302C2221300078
:1018800000000000807C020200000000003F404099
:1018900000000000FF00000000000000FF0000004A
:1018A0000002027C800000000040403F0000000079
:1018B0000006010102020404000000000000000014
:1018C000202020202020200000000000EC18000034
:1018D0000000FF1F3C00000008090000281900005C
:1018E0003C00FF1F04040000180900006400000011
:1018F000640000006400000000000000006006407A
:101900000070064000600E4000700E4000A00640CF
:1019100000B0064000C0064000D0064000A00E40C7
:081920000000000000000000BF
:0400000500000411E2
:00000001FF
