:020000040000FA
:100000002804FF1F25040000A104000033040000A1
:10001000350400003704000039040000000000002F
:100020000000000000000000000000003B04000091
:100030003D040000000000003F04000041040000F7
:100040007104000043040000430400004304000066
:100050004304000043040000430400004304000084
:100060004304000043040000430400004304000074
:100070004304000043040000430400004304000064
:100080004304000043040000430400004304000054
:100090004304000043040000430400004304000044
:1000A0004304000043040000430400004304000034
:1000B0004304000043040000430400004304000024
:1000C0004304000043040000430400004304000014
:1000D000430400001D090000430400004304000025
:1000E00043040000430400004304000043040000F4
:1000F00043040000430400004304000043040000E4
:10010000CD07000043040000430400004304000046
:1001100043040000430400004304000043040000C3
:1001200043040000430400004304000043040000B3
:10013000090800002D0800004304000043040000EB
:1001400043040000430400002D09000043040000A4
:100150004304000043040000430400004304000083
:100160004304000043040000430400004304000073
:100170004304000043040000430400004304000063
:100180004304000043040000430400004304000053
:1003F000430400004304000043040000FFFFFFFF2C
:10040000FFFFFFFFFFFFFFFFFFFFFFFFFEFFFFFFFD
:10041000DFF80CD000F01AF800480047850B000008
:100420002804FF1F72B60748804762B60648004797
:10043000FEE7FEE7FEE7FEE7FEE7FEE7FEE7FEE794
:10044000FEE7FEE7F508000011040000064C074D2A
:1004500006E0E06840F0010394E807009847103494
:10046000AC42F6D3FFF7D8FF0017000020170000BA
:100470000348406A40F001000149486270470000AB
:10048000008000404CF220500449C8814DF62810ED
:10049000C8814FF4E97008807047000000200540D3
:1004A000704709E04FF47A5100BF0A1EA1F1010321
:1004B00099B2FAD1421E90B20028F3D1704770B5BC
:1004C0000646002415E004F1B001C8B200F02EF990
:1004D000012000F02BF9102000F028F9002504E09D
:1004E000304600F04BF9681CC5B2802DF8DB601C6B
:1004F000C4B2082CE7DB70BD10B5012211465020B4
:1005000000F09EFA002201214F2000F099FA01220A
:1005100011464E2000F094FA012211464D2000F0C1
:100520008FFA0321502000F099FB03214F2000F0A7
:1005300095FB03214E2000F091FB03214D2000F09C
:100540008DFB0121502000F0E5FA00214E2000F043
:10055000E1FA3220FFF7A5FF01214E2000F0DAFA80
:10056000AE2000F0E3F8002000F0E0F8102000F0EA
:10057000DDF8402000F0DAF8812000F0D7F8CF2035
:1005800000F0D4F8A12000F0D1F8C82000F0CEF897
:10059000A62000F0CBF8A82000F0C8F83F2000F01B
:1005A000C5F8D32000F0C2F8002000F0BFF8D52035
:1005B00000F0BCF8802000F0B9F8D92000F0B6F8BF
:1005C000F12000F0B3F8DA2000F0B0F8122000F0CB
:1005D000ADF8DB2000F0AAF8402000F0A7F82020BA
:1005E00000F0A4F8022000F0A1F88D2000F09EF8A1
:1005F000142000F09BF8A42000F098F8A62000F04A
:1006000095F8AF2000F092F80020FFF758FF002186
:10061000084600F077F810BD2DE9F04704468846FB
:1006200015464FF000090026002720E0E85D20383D
:1006300000F0FF097E2C04DD002408F1010000F029
:10064000FF084146204600F05DF8002609E009EB6E
:100650004901094A02EB4101885D00F08FF8701CE6
:10066000C6B2062EF3DBA01DC4B2781CC7B2E85D8B
:100670000028DBD1BDE8F087E80E00002DE9F04747
:1006800006460F46904600250024A14631E018F8A2
:1006900009002038C5B2782E02DD0026781CC7B2CA
:1006A0003946304600F02EF8002407E004EB05112F
:1006B000134A505C00F062F8601CC4B2082CF5DBF1
:1006C000781CC1B2304600F01DF8002408E004EBAD
:1006D000051108310A4A505C00F050F8601CC4B2A1
:1006E000082CF4DB06F10800C6B209F1010000F0A5
:1006F000FF0918F809000028C9D1BDE8F0870000FB
:100700001011000070B504460D4605F1B001C8B2E5
:1007100000F00CF8102141EA141000F007F804F082
:100720000F0141F0010000F001F870BD70B5044602
:10073000082500214D2000F0EDF90021502000F0A7
:10074000E9F915E004F0800020B101214F2000F00C
:10075000E1F903E000214F2000F0DCF901215020F5
:1007600000F0D8F90021502000F0D4F96006040E02
:10077000281EA5F10101CDB2E4D170BD70B50446CB
:10078000082501214D2000F0C5F90021502000F07E
:10079000C1F915E004F0800020B101214F2000F0E4
:1007A000B9F903E000214F2000F0B4F901215020F5
:1007B00000F0B0F90021502000F0ACF96006040E02
:1007C000281EA5F10101CDB2E4D170BD10B5012004
:1007D00000F0F2F809490860022000F0EDF808493D
:1007E0000860012000F0E0F8022000F0DDF8054884
:1007F000006840F001010348016010BD2000FF1FA8
:100800002400FF1F0C71034010B50748006800F476
:100810008010B0F5801F02D19A2000F09FF94FF0B0
:10082000FF300149086010BDA0A004404FF0FF3028
:100830000149086070470000A0B0044010B54FF0B7
:10084000FF30294948642948407820F002002749B0
:1008500048700846407840F020004870BA20087080
:100860000846C07800F01F00C8700846407900F0C4
:10087000BF00487100BF1D48807900F010000028BB
:10088000F9D100BF1948807900F00C000828F9D18F
:1008900017480468006840F47F001549086000F0BC
:1008A0005DF81348046000BF1048807900F0200014
:1008B0000028F9D000BF0D48807900F040000028E2
:1008C000F9D01A200949087000BF0848807900F063
:1008D0000C000C28F9D100BF0448807900F04000DA
:1008E0000028F9D010BD0000008004400040064000
:1008F00000F0014010B50848006840F47000064957
:100900000860FFF7BFFDFFF799FF012211460420A1
:1009100000F096F810BD000088ED00E00248007974
:10092000014800797047000000D006400248007975
:10093000014800797047000000A00E4002E008C89E
:10094000121F08C1002AFAD170477047002001E049
:1009500001C1121F002AFBD170470000002323B100
:10096000012B07D0022B0FD109E04FF09372042026
:1009700054210EE04FF093720420582109E04FF00B
:10098000937204205C2104E04FF093720420542100
:1009900000BF00BF024B5A64024B18715971704777
:1009A00000800440004006400021024A52F8202006
:1009B00051607047880E00000146034850F821003E
:1009C000406800B270470000880E000010B517485C
:1009D000407900F01F001030322110FB01F1134864
:1009E000007900F00700401CB1FBF0F0400810490E
:1009F00008601048406C012101EB10700C49096837
:100A0000B1FBF0F00C4908600A48406CC0F3036089
:100A1000401C07490968B1FBF0F0084908604FF431
:100A2000E131022000F044F910BD00000040064012
:100A30000000FF1F008004400400FF1F0800FF1F8C
:100A40007CB54311019300F01F0300932E4B9B6B69
:100A50009DF804504FF40074AC4023432A4CA36328
:100A60002A4C9DF8045054F825409DF8005004EBA2
:100A700085031C6824F4E0641C60244C9DF8045039
:100A800054F825409DF8005004EB85031C6844F49D
:100A900080741C6071B11E4C9DF8045054F82540C0
:100AA00004F1140364699DF800600125B5402C43EE
:100AB0001C600DE0164C9DF8045054F8254004F1DC
:100AC000140364699DF800600125B540AC431C60C7
:100AD000C9B162B10E4C9DF8045054F825301C6821
:100AE0009DF800600125B5402C431C600BE0084CCC
:100AF0009DF8045054F825301C689DF800600125CD
:100B0000B540AC431C607CBD00800440980E0000E2
:100B1000AC0E00003CB54211019200F01F020092A1
:100B200061B10D4B9DF8044053F8242013689DF8E3
:100B300000500124AC40234313600BE0064B9DF8AA
:100B4000044053F8242013689DF800500124AC4061
:100B5000A34313603CBD0000AC0E00000CB5411176
:100B6000019100F01F0100919DF8002001219140AA
:100B7000034A9DF8043052F82320D1600CBD0000D8
:100B8000AC0E0000FFF722FFFFF7B6FC0BA200211E
:100B90001C20FFF773FD0BA203210220FFF73CFD91
:100BA0000CA204210220FFF737FD0EA206216020CF
:100BB000FFF732FD62B600BFFEE70000554C756FCF
:100BC0004B3636004C51204D4B3636465820537527
:100BD000697465004F6E626F617264204F4C4544CA
:100BE000000000004F4B21003CB54211019200F083
:100BF0001F020092164A926B9DF804404FF4007356
:100C0000A3401A43124B9A639DF8003001229A4088
:100C1000104B9DF8044053F82430C3F8A0200D4A2F
:100C20009DF8043052F823209DF8003042F823103C
:100C3000094B9DF8044053F8243003F114025B691A
:100C40009DF800500124AC40A34313603CBD00005C
:100C500000800440C00E0000D40E00001CB54211FC
:100C6000019200F01F0200920F4A926B9DF804401F
:100C70004FF40073A3401A430B4B9A630B4A9DF841
:100C8000043052F823209DF8003052F8232002F45B
:100C9000E0620A43054B9DF8044053F824309DF868
:100CA000004043F824201CBD00800440C00E00001A
:100CB0003EB504460D46052C59D2DFE804F0031476
:100CC000253647006B48406B40F4806069494863B3
:100CD0004FF440716620FFF787FF4FF440716720A3
:100CE000FFF782FF44E06348406B40F400606149D5
:100CF00048634FF440718120FFF776FF4FF4407155
:100D00008020FFF771FF33E05A48406B40F4805079
:100D1000584948634FF440716320FFF765FF4FF473
:100D200040716220FFF760FF22E05248406B40F4C0
:100D30000050504948634FF440712A20FFF754FF98
:100D40004FF440712B20FFF74FFF11E04948806AB4
:100D500040F48060474988624FF440714E20FFF7AD
:100D600043FF4FF440714F20FFF73EFF00E03EBDD0
:100D700000BF414850F82400C07820F00C003E49E4
:100D800051F82410C8703C4850F8240080783A4943
:100D900051F8241088700CB1012C05D13748006837
:100DA00037494843029004E03648006834494843D4
:100DB000029028010299B1FBF0F080B201900198F5
:100DC000B0F5005F02D341F6FF7001900298400039
:100DD000B0FBF5F10198A1EB4010009000981F289E
:100DE00001D91F200090244850F82400007820F0FA
:100DF0001F00214951F8241008701F4850F82400A2
:100E000000780199C1F3042108431B4951F82410CB
:100E10000870194951F8241001984870164850F884
:100E20002400807A20F01F00134951F824108872A2
:100E3000114850F82400807A009901F01F010843FE
:100E40000D4951F8241088720B4850F82400007C9A
:100E500040F08800084951F824100874064850F8FA
:100E60002400C07840F00C00034951F82410C870E9
:100E700000BF7CE7008004400C00FF1F0400FF1F40
:100E800040420F000800FF1F008003400090034015
:100E900000A0034000900B400090044000A00440DC
:100EA00000B0044000C0044000D0044000F00F40F7
:100EB00040F00F4080F00F40C0F00F4000F10F40B5
:100EC0000090044000A0044000B0044000C0044072
:100ED00000D0044000F00F4040F00F4080F00F4081
:100EE000C0F00F4000F10F400000000000000000C3
:100EF000002F000000000700070000147F147F147B
:100F000000242A7F2A120062640813230036495500
:100F1000225000000503000000001C2241000000D8
:100F200041221C000014083E08140008083E08086E
:100F3000000000A0600000080808080800006060C9
:100F40000000002010080402003E5149453E000008
:100F5000427F4000004261514946002141454B31EA
:100F6000001814127F10002745454539003C4A49B6
:100F70004930000171090503003649494936000628
:100F80004949291E00003636000000005636000090
:100F9000000814224100001414141414000041220B
:100FA000140800020151090600324959513E007CE3
:100FB0001211127C007F49494936003E41414122CD
:100FC000007F4141221C007F49494941007F0909B6
:100FD0000901003E4149497A007F0808087F000066
:100FE000417F4100002040413F01007F0814224121
:100FF000007F40404040007F020C027F007F0408D9
:10100000107F003E4141413E007F09090906003E34
:101010004151215E007F091929460046494949315D
:101020000001017F0101003F4040403F001F204080
:10103000201F003F4038403F00631408146300073E
:101040000870080700615149454300007F41410095
:1010500000552A552A55000041417F000004020135
:101060000204004040404040000001020400002013
:1010700054545478007F4844443800384444442051
:1010800000384444487F00385454541800087E09FE
:1010900001020018A4A4A47C007F080404780000C6
:1010A000447D4000004080847D00007F1028440083
:1010B0000000417F4000007C04180478007C080494
:1010C000047800384444443800FC242424180018D0
:1010D000242418FC007C08040408004854545420BC
:1010E00000043F444020003C4040207C001C204045
:1010F000201C003C4030403C004428102844001C88
:10110000A0A0A07C004464544C441414141414147F
:1011100000000000000000000000000000000000CF
:10112000000000F800000000000000333000000064
:1011300000100C06100C060000000000000000006B
:1011400040C07840C0784000043F04043F040400DD
:10115000007088FC08300000001820FF211E0000ED
:10116000F008F000E018000000211C031E211E0002
:1011700000F00888700000001E2123241927211088
:1011800010160E000000000000000000000000002B
:10119000000000E0180402000000000718204000D2
:1011A00000020418E00000000040201807000000C2
:1011B000404080F0804040000202010F0102020026
:1011C000000000F0000000000101011F010101000A
:1011D000000000000000000080B07000000000006F
:1011E00000000000000000000001010101010101F8
:1011F000000000000000000000303000000000008F
:101200000000000080601804006018060100000063
:1012100000E010080810E000000F102020100F0060
:10122000001010F8000000000020203F20200000E7
:10123000007008080888700000302824222130003F
:1012400000300888884830000018202020110E0047
:101250000000C02010F8000000070424243F2400F0
:1012600000F80888880808000019212020110E00C5
:1012700000E0108888180000000F112020110E00D7
:1012800000380808C83808000000003F00000000CF
:101290000070880808887000001C222121221C0090
:1012A00000E010080810E0000000312222110F00B9
:1012B000000000C0C000000000000030300000004E
:1012C00000000080000000000000806000000000BE
:1012D00000008040201008000001020408102000D7
:1012E0004040404040404000040404040404040022
:1012F00000081020408000000020100804020100B7
:10130000007048080808F0000000003036010000B6
:10131000C030C828E810E0000718272423140B0069
:101320000000C038E0000000203C230202273820E3
:1013300008F8888888700000203F202020110E00C7
:10134000C0300808080838000718202020100800BE
:1013500008F808080810E000203F202020100F00A7
:1013600008F88888E8081000203F20202320180073
:1013700008F88888E8081000203F200003000000DB
:10138000C03008080838000007182020221E02007C
:1013900008F808000008F808203F210101213F203B
:1013A000000808F8080800000020203F2020000066
:1013B00000000808F8080800C08080807F00000056
:1013C00008F888C028180800203F2001263820008F
:1013D00008F8080000000000203F202020203000F6
:1013E00008F8F800F8F80800203F003F003F200010
:1013F00008F830C00008F808203F200007183F0018
:10140000E01008080810E0000F10202020100F0046
:1014100008F808080808F000203F21010101000039
:10142000E01008080810E0000F18242438504F007E
:1014300008F8888888887000203F2000030C30203E
:1014400000708808080838000038202121221C007C
:10145000180808F8080818000000203F20000000C5
:1014600008F808000008F808001F202020201F00AE
:101470000878880000C83808000007380E0100000E
:10148000F80800F80008F800033C0700073C0300D8
:10149000081868808068180820302C03032C30203E
:1014A0000838C800C83808000000203F20000000AD
:1014B00010080808C8380800203826212020180005
:1014C000000000FE020202000000007F40404000D9
:1014D000000C30C000000000000000010638C00011
:1014E00000020202FE000000004040407F000000B9
:1014F00000000402020204000000000000000000DE
:1015000000000000000000008080808080808080DB
:1015100000020204000000000000000000000000C3
:1015200000008080808000000019242222223F20B9
:1015300008F8008080000000003F112020110E00FC
:101540000000008080800000000E1120202011008B
:10155000000000808088F800000E112020103F203D
:101560000000808080800000001F222222221300C1
:10157000008080F0888888180020203F202000000C
:101580000000808080808000006B949494936000C1
:1015900008F8008080800000203F210000203F20CC
:1015A00000809898000000000020203F20200000CC
:1015B000000000809898000000C08080807F0000BC
:1015C00008F8000080808000203F24022D30200099
:1015D000000808F8000000000020203F2020000044
:1015E0008080808080808000203F20003F20003F5E
:1015F0008080008080800000203F210000203F206C
:101600000000808080800000001F202020201F001C
:10161000808000808000000080FFA12020110E004B
:101620000000008080808000000E112020A0FF803C
:10163000808080008080800020203F2120000100E9
:10164000000080808080800000332424242419003E
:10165000008080E0808000000000001F202000004B
:101660008080000000808000001F202020103F208C
:10167000808080000080808000010E30080601001C
:1016800080800080008080800F300C030C300F00C1
:1016900000808000808080000020312E0E312000EC
:1016A000808080000080808080818E70180601001C
:1016B00000808080808080000021302C222130003A
:1016C00000000000807C020200000000003F40405B
:1016D00000000000FF00000000000000FF0000000C
:1016E0000002027C800000000040403F000000003B
:1016F00000060101020204040000000000000000D6
:10170000201700000000FF1F280000003C09000017
:10171000481700002800FF1F000400004C090000CB
:1017200064000000640000006400000000A00640A7
:1017300000B0064000C0064000D0064000A00E40A9
:081740000000000000000000A1
:0400000500000411E2
:00000001FF
