:020000040000FA
:10000000B004FF1F2504000059060000330400005F
:10001000350400003704000039040000000000002F
:100020000000000000000000000000003B04000091
:100030003D040000000000003F040000610B0000D0
:100040009504000043040000430400004304000042
:100050004304000043040000430400004304000084
:100060004304000043040000430400004304000074
:100070004304000043040000430400004304000064
:100080004304000043040000430400004304000054
:100090004304000043040000430400004304000044
:1000A0004304000043040000430400004304000034
:1000B0004304000043040000430400004304000024
:1000C0004304000043040000430400004304000014
:1000D00043040000810B00004304000043040000BF
:1000E00043040000430400004304000043040000F4
:1000F00043040000430400004304000043040000E4
:10010000110A0000430400004304000043040000FF
:1001100043040000430400004304000043040000C3
:1001200043040000430400004304000043040000B3
:100130004D0A0000710A000043040000430400005F
:100140004304000043040000910B0000430400003E
:100150004304000043040000430400004304000083
:100160004304000043040000430400004304000073
:100170004304000043040000430400004304000063
:100180004304000043040000430400004304000053
:1003F000430400004304000043040000FFFFFFFF2C
:10040000FFFFFFFFFFFFFFFFFFFFFFFFFEFFFFFFFD
:10041000DFF80CD000F02CF800480047BD150000B4
:10042000B004FF1F72B60748804762B6064800470F
:10043000FEE7FEE7FEE7FEE7FEE7FEE7FEE7FEE794
:10044000FEE7FEE7390B00001104000040EA01035B
:100450009B0703D009E008C9121F08C0042AFAD27A
:1004600003E011F8013B00F8013B521EF9D270473E
:10047000064C074D06E0E06840F0010394E80700F1
:1004800098471034AC42F6D3FFF7C6FFE4240000CF
:10049000042500000348406A40F001000149486219
:1004A00070470000008000404CF220500449C88191
:1004B0004DF62810C8814FF4E9700880704700009D
:1004C0000020054070B505460C4635B1012D45D0DC
:1004D000022D5CD0032D40D177E05E48C06B40F028
:1004E00080705C49C863082C35D2DFE804F0040A48
:1004F00010161C22282E4FF48061412001F0C0F913
:100500002AE04FF48061422001F0BAF924E04FF470
:100510008061432001F0B4F91EE04FF48061442073
:1005200001F0AEF918E04FF48061642001F0A8F901
:1005300012E04FF48061652001F0A2F90CE04FF465
:100540008061662001F09CF906E04FF4806167202D
:1005500001F096F900E070BD00BF77E03D48C06B48
:1005600040F000703B49C86314B1012C0CD105E088
:100570004FF440710C2001F083F906E04FF4407114
:100580000D2001F07DF900E0E5E700BF5EE03148B5
:10059000006B40F080702F4908630846C06B40F044
:1005A0008060C86314B1012C0CD105E04FF4407198
:1005B000322001F065F900BF4FF44071332001F0A3
:1005C0005FF900E0C7E700BF40E02248006B40F061
:1005D000007020490863082C35D2DFE804F0040AD3
:1005E00010161C22282E4FF4C061852001F048F916
:1005F0002AE04FF4C061862001F042F924E04FF474
:10060000C061872001F03CF91EE04FF4C0618820F2
:1006100001F036F918E04FF4C061892001F030F99B
:1006200012E04FF4C0618A2001F02AF90CE04FF487
:1006300040714A2001F024F906E04FF4C0618C209B
:1006400001F01EF900E086E700BF00BF00BF00BF59
:1006500081E7000000800440704709E04FF47A51C0
:1006600000BF0A1EA1F1010399B2FAD1421E90B255
:100670000028F3D1704770B50646002415E004F158
:10068000B001C8B200F074F9012000F071F9102037
:1006900000F06EF9002504E0304600F091F9681C86
:1006A000C5B2802DF8DB601CC4B2082CE7DB70BD3E
:1006B00030B50246062000240C540EE0441EE0B281
:1006C0000A2492FBF4F504FB1524E3B20A2492FBFE
:1006D000F4F4A2B203F130040C540028EED130BD82
:1006E00010B501221146502000F042FD00220121E8
:1006F000512000F03DFD01221146522000F038FD4E
:1007000001221146532000F033FD0321502001F057
:10071000F1F80321512001F0EDF80321522001F0FE
:10072000E9F80321532001F0E5F80121502000F001
:1007300089FD0021522000F085FD3220FFF78DFF5A
:100740000121522000F07EFDAE2000F011F90020C2
:1007500000F00EF9102000F00BF9402000F008F92D
:10076000812000F005F9CF2000F002F9A12000F06F
:10077000FFF8C82000F0FCF8A62000F0F9F8A82047
:1007800000F0F6F83F2000F0F3F8D32000F0F0F886
:10079000002000F0EDF8D52000F0EAF8802000F00D
:1007A000E7F8D92000F0E4F8F12000F0E1F8DA20D1
:1007B00000F0DEF8122000F0DBF8DB2000F0D8F8C3
:1007C000402000F0D5F8202000F0D2F8022000F000
:1007D000CFF88D2000F0CCF8142000F0C9F8A42048
:1007E00000F0C6F8A62000F0C3F8AF2000F0C0F873
:1007F0000020FFF740FF0021084600F0A5F810BDDB
:100800002DE9F0470446884615464FF000090026BA
:10081000002720E0E85D203800F0FF097E2C04DD91
:10082000002408F1010000F0FF084146204600F0D6
:100830008BF8002609E009EB4901094A02EB410166
:10084000885D00F0BDF8701CC6B2062EF3DBA01D5B
:10085000C4B2781CC7B2E85D0028DBD1BDE8F087E0
:10086000CC1C00002DE9F04706460F4690460025B7
:100870000024A14631E018F809002038C5B2782ECE
:1008800002DD0026781CC7B23946304600F05CF81D
:10089000002407E004EB0511134A505C00F090F8C7
:1008A000601CC4B2082CF5DB781CC1B2304600F0E5
:1008B0004BF8002408E004EB051108310A4A505CAB
:1008C00000F07EF8601CC4B2082CF4DB06F10800CE
:1008D000C6B209F1010000F0FF0918F8090000286C
:1008E000C9D1BDE8F0870000F41E00002DE9FC41ED
:1008F00006460F461446002C07DA604204B210A2E6
:1009000039463046FFF77CFF04E00EA239463046F8
:10091000FFF776FFB01DC6B2A0B26946FFF7C8FE6A
:100920000DF1010507E02A4639463046FFF768FF1A
:10093000B01DC6B26D1C28780028F4D1BDE8FC813A
:100940002D0000002000000070B504460D4605F1A2
:10095000B001C8B200F00CF8102141EA141000F008
:1009600007F804F00F0141F0010000F001F870BD3C
:1009700070B5044608250021532000F063FC0021D7
:10098000502000F05FFC15E004F0800020B1012150
:10099000512000F057FC03E00021512000F052FCF0
:1009A0000121502000F04EFC0021502000F04AFCB4
:1009B0006006040E281EA5F10101CDB2E4D170BD80
:1009C00070B5044608250121532000F03BFC0021AE
:1009D000502000F037FC15E004F0800020B1012128
:1009E000512000F02FFC03E00021512000F02AFCF0
:1009F0000121502000F026FC0021502000F022FCB4
:100A00006006040E281EA5F10101CDB2E4D170BD2F
:100A100010B5012000F0F6FA09490860022000F044
:100A2000F1FA08490860012000F0E4FA022000F021
:100A3000E1FA0548006840F001010348016010BD7B
:100A40003C00FF1F4000FF1F0C71034010B507481A
:100A5000006800F48010B0F5801F02D19A2000F0E9
:100A600015FC4FF0FF300149086010BDA0A0044004
:100A70004FF0FF300149086070470000A0B004400B
:100A800010B54FF0FF30294948642948407820F0DC
:100A90000200274948700846407840F0200048701E
:100AA000BA2008700846C07800F01F00C8700846D9
:100AB000407900F0BF00487100BF1D48807900F008
:100AC00010000028F9D100BF1948807900F00C000F
:100AD0000828F9D117480468006840F47F001549D8
:100AE000086000F087F91348046000BF104880795F
:100AF00000F020000028F9D000BF0D48807900F0F8
:100B000040000028F9D01A200949087000BF0848A1
:100B1000807900F00C000C28F9D100BF04488079DE
:100B200000F040000028F9D010BD00000080044013
:100B30000040064000F0014010B50848006840F44D
:100B4000700006490860FFF7AFFCFFF799FF01222C
:100B50001146042000F00CFB10BD000088ED00E001
:100B6000002008E0054951F82010491C034A42F8CA
:100B70002010411CC8B20A28F4D370475C00FF1F44
:100B800002480079014800797047000000D0064013
:100B900002480079014800797047000000A00E402B
:100BA00002E008C8121F08C1002AFAD17047704736
:100BB000002001E001C1121F002AFBD17047000094
:100BC00070B50446651115B1012D1ED10EE06748C0
:100BD000C06B40F000606549C8630846806920F03A
:100BE000900088610846806988610FE05F48006B6B
:100BF00040F000605D4908630846806920F41040B9
:100C0000886108468069886100E000BF00BF3F2C12
:100C100073D2DFE804F05253A754A7A7A7A7202553
:100C20002A2F34393E4357484D5556A7A7A7A7A7A3
:100C300058A7A7595AA75B5CA75D5E63686D737878
:100C40007D82878C9196A09BA1A2A3A7A7A7A7A707
:100C5000A4A7A7A5A6000021202000F011FE82E095
:100C60000021212000F00CFE7DE00021072000F093
:100C700007FE78E00021082000F002FE73E000216A
:100C8000222000F0FDFD6EE00021232000F0F8FDA1
:100C900069E00021402000F0F3FD64E000214120E4
:100CA00000F0EEFD5FE00021982000F0E9FD5AE041
:100CB0000021992000F0E4FD55E000BF00BF00BF17
:100CC00000BF00BF00BF00BF00BF4CE000BF00BFBF
:100CD00049E00021802000F0D3FD44E00021812084
:100CE00000F0CEFD3FE00021822000F0C9FD3AE097
:100CF0000021832000F0C4FD35E033E000212020F6
:100D000000F0BEFD2FE00021212000F0B9FD2AE017
:100D10000021242000F0B4FD25E00021252000F072
:100D2000AFFD20E00021262000F0AAFD1BE00021FD
:100D3000272000F0A5FD16E000212A2000F0A0FDEC
:100D400011E000212B2000F09BFD0CE00021112080
:100D500000F096FD07E000BF00BF00BF00BF00BF6E
:100D600000BF00E000BF00BF70BD00000080044075
:100D7000F0B505460E4600276C113146284600F0B6
:100D80001DF800BF0C4850F82400006800F08000F7
:100D90008028F7D1084850F82400006987B2064837
:100DA00050F82400006820F08000034951F8241016
:100DB00008603846F0BD0000E41B000030B50A466C
:100DC000411100F01F030C2404EA820444F0500493
:100DD000074D55F82150AC600424054D55F82150BD
:100DE000EC6043F04004024D55F821502C6030BDBA
:100DF000E41B0000002323B1012B07D0022B0FD1ED
:100E000009E04FF09372042054210EE04FF09372EA
:100E10000420582109E04FF0937204205C2104E083
:100E20004FF093720420542100BF00BF024B5A645C
:100E3000024B187159717047008004400040064011
:100E400030B50B4630B101280ED0022816D0032849
:100E500028D11DE0184C34F81040641C54434FF462
:100E60007A75B4FBF5F11EE0134C34F81040641CA5
:100E700054434FF47A75B4FBF5F114E00E4C34F89A
:100E80001040641C54434FF47A75B4FBF5F10AE04A
:100E9000094C34F81040641C54434FF47A75B4FB89
:100EA000F5F100E000BF00BF044C54F820400C34C2
:100EB00004EBC304616030BD0C00FF1FEC1B00009D
:100EC0002DE9F05F04460E4692461F463146204605
:100ED000FFF7F8FA444800684FF47A71484300FB82
:100EE00001FB4FEA1B40B0FBFAF54FF0000803E0AE
:100EF00008F1010000F0FF0845FA08F00128F7DAD0
:100F0000B8F1070F01DDBDE8F09F2BFA08F0B0FB48
:100F1000FAF085B2354820F8145034B1012C0ED0C7
:100F2000022C16D0032C28D11DE02846401C784303
:100F30004FF47A71B0FBF1F01FFA80F91EE02846F9
:100F4000401C78434FF47A71B0FBF1F01FFA80F93E
:100F500014E02846401C78434FF47A71B0FBF1F05E
:100F60001FFA80F90AE02846401C78434FF47A7152
:100F7000B0FBF1F01FFA80F900E000BF00BF1C4891
:100F800050F8240085601A4850F824000C3050F8BE
:100F9000360020F00401164850F824000C3040F8C8
:100FA00036102821124850F824000C3040F8361032
:100FB00008F0070040F008000D4951F824100860BF
:100FC00000200B4951F82410C864094850F8240047
:100FD0000C3000EBC600C0F804900020044951F822
:100FE0002410486000BF8EE70800FF1F0C00FF1FA1
:100FF000EC1B00000021024A52F82020516070478B
:10100000EC1B00000146034850F82100406800B284
:1010100070470000EC1B000010B50446012C02D004
:10102000022C27D110E03348C06B40F000703149EA
:10103000C8634FF4E0610C2000F022FC4FF4E06143
:101040000D2000F01DFC16E02A48006B40F0807077
:10105000284908630846C06B40F08060C8634FF4BD
:10106000C061322000F00CFC4FF4C061332000F06E
:1010700007FC00E000BF00BF1F4850F82400406D8F
:1010800040F004001C4951F8241048651A4850F8F3
:101090002400D0F8800040F00800174951F82410CF
:1010A000C1F880000020144951F82410C8644FF69C
:1010B000FF70114951F8241088600F4850F824003F
:1010C000D0F8800040F001000B4951F82410C1F81D
:1010D0008000094850F82400406D40F001000649A6
:1010E00051F8241048650020034951F82410486045
:1010F00010BD000000800440EC1B000010B5174834
:10110000407900F01F001030322110FB01F113482C
:10111000007900F00700401CB1FBF0F040081049D6
:1011200008601048406C012101EB10700C490968FF
:10113000B1FBF0F00C4908600A48406CC0F3036052
:10114000401C07490968B1FBF0F0084908604FF4FA
:10115000E131022000F020FC10BD000000400640FC
:101160000000FF1F008004400400FF1F0800FF1F55
:101170007CB54311019300F01F0300932E4B9B6B32
:101180009DF804504FF40074AC4023432A4CA363F1
:101190002A4C9DF8045054F825409DF8005004EB6B
:1011A00085031C6824F4E0641C60244C9DF8045002
:1011B00054F825409DF8005004EB85031C6844F466
:1011C00080741C6071B11E4C9DF8045054F8254089
:1011D00004F1140364699DF800600125B5402C43B7
:1011E0001C600DE0164C9DF8045054F8254004F1A5
:1011F000140364699DF800600125B540AC431C6090
:10120000C9B162B10E4C9DF8045054F825301C68E9
:101210009DF800600125B5402C431C600BE0084C94
:101220009DF8045054F825301C689DF80060012595
:10123000B540AC431C607CBD00800440FC1B00003A
:10124000101C00003CB54211019200F01F020092F8
:1012500061B10D4B9DF8044053F8242013689DF8AC
:1012600000500124AC40234313600BE0064B9DF873
:10127000044053F8242013689DF800500124AC402A
:10128000A34313603CBD0000101C00000CB54111CD
:10129000019100F01F0100919DF800200121914073
:1012A000034A9DF8043052F82320D1600CBD0000A1
:1012B000101C000008B54FF4C870009000BFBDF8C6
:1012C0000000411E89B200910028F8D108BD00003D
:1012D0002DE9F04FA1B0064689468022424901A877
:1012E000FFF7B4F800BF40254FF6FF7B86B93F48B3
:1012F000406B40F040003D49486340F223212220EA
:1013000000F0BEFA40F22321232000F0B9FA0FE0EA
:101310003648406B40F080003449486340F2236116
:10132000812000F0ADFA40F22361802000F0A8FA9D
:101330002F48006800EB4001C1EBC0104CF2503167
:10134000B1EBC00F01D300240CE02948006800EB8A
:101350004001C1EBC0102749B1EBC00F01D30124FC
:1013600000E0022422480168234841430120A040B4
:1013700000FB09F0B1FBF0F01FFA80FA13E0681EE1
:10138000C5B201A931F81510AAEB0100002801DB54
:10139000014600E041428FB20FB9A84605E05F4523
:1013A00001DAA846BB46002DE9D100BFC02000EA03
:1013B000841008F03F010843104951F82610487086
:1013C00080200E4951F8261088700120A04001A904
:1013D00031F81810484306490968074A5143B1FBE0
:1013E000F0F021B0BDE8F08F241C00000080044024
:1013F0000800FF1FA086010040420F001800FF1FD9
:1014000008B5002000904D484068807840F03000DA
:101410004A4949688870E12048494968087100BF15
:1014200046484068C07800F002000028F8D04348E1
:101430004068C07840F0020040494968C8703F48A1
:101440004068807820F018003C49496888703B4823
:101450004068027900BF39484068C07800F0020057
:101460000028F8D035484068C07840F00200334981
:101470004968C8703148406800798DF80000FFF76E
:1014800019FF2E484068027900BF2C484068C07898
:1014900000F002000028F8D028484068C07840F0EA
:1014A000020026494968C8702448406800798DF8D0
:1014B0000100FFF7FFFE21484068807840F00800F7
:1014C0001E49496888701D484068807820F01000E7
:1014D0001A494968887019484068807840F00800C7
:1014E00016494968887015484068027900BF13485A
:1014F0004068C07800F002000028F8D00F4840682B
:10150000C07840F002000D494968C8700B48406837
:10151000807820F0300009494968887007484068A1
:1015200000798DF80100FFF7C5FE9DF801009DF8D8
:10153000001000EB0120C2B2104608BD1800FF1FCA
:1015400000B51D484068807840F030001A4949686D
:101550008870E02018494968087100BF1648406843
:10156000C07800F002000028F8D013484068C07826
:1015700040F0020010494968C87051200E4949687E
:10158000087100BF0C484068C07800F002000028D5
:10159000F8D009484068C07840F002000649496820
:1015A000C87005484068807820F0300002494968DA
:1015B0008870FFF77FFE00BD1800FF1FFFF79EFD3C
:1015C000FFF78EF898A200211C20FFF74BF998A294
:1015D00003210220FFF714F999A204210220FFF74A
:1015E0000FF94FF4FA7000F0C5F999A206216020B6
:1015F000FFF706F94FF47A7000F0BCF90020FFF70E
:101600003AF82A20FFF7DCFA2B20FFF7D9FA2C2032
:10161000FFF7D6FA2D20FFF7D3FA0820FFF7D0FA0C
:10162000002343F6982219461846FFF749FC002389
:1016300043F6982201211846FFF742FC002343F6A7
:10164000982202211846FFF73BFC002343F698221C
:1016500003211846FFF734FC0120FFF7DDFC0220D0
:10166000FFF7DAFC002343F6982206210320FFF758
:1016700027FC78484FF0E02148610020886107206E
:10168000086148170121002807DA0A07140E724A78
:1016900000F00F031B1FD45403E00A07130E6F4A18
:1016A000135400BF00206E4908700AE000206D4905
:1016B0006B4A127841F8220069480078401C68495A
:1016C0000870674800780A28F0D31E206649086031
:1016D0004FF4FA704860012211461120FFF748FDCF
:1016E000002211464620FFF743FD002201216F2012
:1016F000FFF73EFD5D490120FFF7EAFD62B691E08C
:101700005848016858480068401F81421DD3554819
:10171000016855480068401D814216D80020514993
:101720000860514800681E2808D140F2CA304E496E
:10173000086001211120FFF785FD06E01E204A49BF
:10174000086000211120FFF77DFD464841684648AA
:101750004068401F81421AD342484168424840686D
:10176000401D814213D800203E4948603E484068F1
:101770003C2807D164203C494860FFF741FE3C49C2
:10178000088004E03C2038494860FFF7D9FE39481A
:10179000008802B200210846FFF7A8F83648008802
:1017A00002B200213020FFF7A1F800212A20FFF724
:1017B000DFFA3249087000212B20FFF7D9FA2F49B0
:1017C000487000212C20FFF7D3FA2C4988700021A3
:1017D0002D20FFF7CDFA2949C8700846027802216A
:1017E0000020FFF783F82548427802213020FFF7D8
:1017F0007DF82248827803210020FFF777F81F4800
:10180000C27803213020FFF771F8012240F2E7315E
:10181000084600F0ADF91648008802B20521002004
:10182000FFF764F86CE70000554C756F4B363600D7
:101830004C51204D4B36364658205375697465001F
:101840004F6E626F617264204F4C4544000000008F
:101850004F4B210020BF020018ED00E000E400E043
:101860004400FF1F5C00FF1F8400FF1F801A06005A
:101870005A00FF1F4800FF1F4A00FF1F5200FF1FB2
:101880003CB54211019200F01F020092164A926B81
:101890009DF804404FF40073A3401A43124B9A631F
:1018A0009DF8003001229A40104B9DF8044053F8F7
:1018B0002430C3F8A0200D4A9DF8043052F82320AC
:1018C0009DF8003042F82310094B9DF8044053F86E
:1018D000243003F114025B699DF800500124AC40F0
:1018E000A34313603CBD000000800440A41C000022
:1018F000B81C00001CB54211019200F01F020092BA
:101900000F4A926B9DF804404FF40073A3401A43B2
:101910000B4B9A630B4A9DF8043052F823209DF834
:10192000003052F8232002F4E0620A43054B9DF890
:10193000044053F824309DF8004043F824201CBD97
:1019400000800440A41C000000B9704700214FF043
:10195000E022116111464861002191610521116168
:1019600000BF4FF0E021096901F480310029F8D06F
:1019700000BFEAE700B5034607E0064909684FF4EF
:101980007A7201FB02F0FFF7DFFF181EA3F10103DB
:10199000F3D100BD0400FF1F3EB504460D46052CE3
:1019A00059D2DFE804F00314253647006B48406B3A
:1019B00040F48060694948634FF440716620FFF746
:1019C0005FFF4FF440716720FFF75AFF44E0634820
:1019D000406B40F40060614948634FF440718120DE
:1019E000FFF74EFF4FF440718020FFF749FF33E0CF
:1019F0005A48406B40F48050584948634FF4407156
:101A00006320FFF73DFF4FF440716220FFF738FF7E
:101A100022E05248406B40F40050504948634FF474
:101A200040712A20FFF72CFF4FF440712B20FFF765
:101A300027FF11E04948806A40F480604749886286
:101A40004FF440719920FFF71BFF4FF4407198202D
:101A5000FFF716FF00E03EBD00BF414850F82400EC
:101A6000C07820F00C003E4951F82410C8703C4862
:101A700050F8240080783A4951F8241088700CB14D
:101A8000012C05D13748006837494843029004E0EB
:101A90003648006834494843029028010299B1FB56
:101AA000F0F080B201900198B0F5005F02D341F6EA
:101AB000FF70019002984000B0FBF5F10198A1EB96
:101AC0004010009000981F2801D91F200090244842
:101AD00050F82400007820F01F00214951F824100C
:101AE00008701F4850F8240000780199C1F30421C0
:101AF00008431B4951F824100870194951F8241063
:101B000001984870164850F82400807A20F01F0091
:101B1000134951F824108872114850F82400807A33
:101B2000009901F01F0108430D4951F824108872F3
:101B30000B4850F82400007C40F08800084951F818
:101B400024100874064850F82400C07840F00C00B7
:101B5000034951F82410C87000BF7CE7008004409E
:101B60002800FF1F0400FF1F40420F000800FF1F56
:101B700070B504460D461646B4F57A7F01DB40F297
:101B8000E734B5F57A7F01DB40F2E735A6B92246A6
:101B900000210846FFF754F9012211460020FFF703
:101BA0004FF92A4602210020FFF74AF901220321BA
:101BB0000020FFF745F913E0012200210846FFF756
:101BC0003FF9224601210020FFF73AF901220221C4
:101BD0000020FFF735F92A4603210020FFF730F9EE
:101BE00070BD000000B0034000B00B400080034017
:101BF0000090034000A0034000900B400090044080
:101C000000A0044000B0044000C0044000D00440E4
:101C100000F00F4040F00F4080F00F40C0F00F4048
:101C200000F10F401400160018001A001C001E00DE
:101C3000220028001C002000240028002C00300076
:101C40003800440030003800400048005000580080
:101C50006800800050006000700080009000A000CC
:101C6000C000F000A000C000E00000012001400121
:101C70008001E00140018001C001000240028002B9
:101C80000003C003800200038003000480040005F9
:101C90000006800700050006000700080009000A8A
:101CA000000C000F0090044000A0044000B004406D
:101CB00000C0044000D0044000F00F4040F00F404E
:101CC00080F00F40C0F00F4000F10F400000000016
:101CD00000000000002F00000000070007000014B3
:101CE0007F147F1400242A7F2A12006264081323C1
:101CF00000364955225000000503000000001C2258
:101D00004100000041221C000014083E0814000895
:101D1000083E0808000000A0600000080808080845
:101D2000000060600000002010080402003E5149DD
:101D3000453E0000427F400000426151494600217B
:101D400041454B31001814127F1000274545453995
:101D5000003C4A49493000017109050300364949F0
:101D6000493600064949291E0000363600000000A9
:101D700056360000000814224100001414141414F4
:101D8000000041221408000201510906003249599D
:101D9000513E007C1211127C007F49494936003EB9
:101DA00041414122007F4141221C007F4949494174
:101DB000007F09090901003E4149497A007F08086E
:101DC000087F0000417F4100002040413F01007F2B
:101DD00008142241007F40404040007F020C027FF7
:101DE000007F0408107F003E4141413E007F090909
:101DF0000906003E4151215E007F0919294600462F
:101E0000494949310001017F0101003F4040403F05
:101E1000001F2040201F003F4038403F006314084F
:101E2000146300070870080700615149454300002A
:101E30007F41410000552A552A55000041417F004D
:101E40000004020102040040404040400000010242
:101E50000400002054545478007F4844443800382B
:101E60004444442000384444487F003854545418B3
:101E700000087E0901020018A4A4A47C007F0804C5
:101E800004780000447D4000004080847D00007F95
:101E9000102844000000417F4000007C04180478B2
:101EA000007C0804047800384444443800FC2424AE
:101EB00024180018242418FC007C08040408004896
:101EC0005454542000043F444020003C4040207CB7
:101ED000001C2040201C003C4030403C00442810A6
:101EE0002844001CA0A0A07C004464544C4414145A
:101EF0001414141400000000000000000000000092
:101F000000000000000000F80000000000000033A6
:101F10003000000000100C06100C0600000000004D
:101F20000000000040C07840C0784000043F040436
:101F30003F040400007088FC08300000001820FFF7
:101F4000211E0000F008F000E018000000211C0332
:101F50001E211E0000F00888700000001E212324AE
:101F60001927211010160E000000000000000000CC
:101F700000000000000000E018040200000000075C
:101F80001820400000020418E00000000040201863
:101F900007000000404080F0804040000202010F36
:101FA00001020200000000F0000000000101011F1A
:101FB00001010100000000000000000080B070007E
:101FC000000000000000000000000000000101010E
:101FD000010101010000000000000000003030009D
:101FE0000000000000000000806018040060180677
:101FF0000100000000E010080810E000000F1020B1
:1020000020100F00001010F8000000000020203FFA
:102010002020000000700808088870000030282484
:102020002221300000300888884830000018202025
:1020300020110E000000C02010F80000000704244A
:10204000243F240000F8088888080800001921208F
:1020500020110E0000E0108888180000000F1120E9
:1020600020110E0000380808C83808000000003FA2
:10207000000000000070880808887000001C222101
:1020800021221C0000E010080810E00000003122AE
:1020900022110F00000000C0C0000000000000304E
:1020A00030000000000000800000000000008060A0
:1020B0000000000000008040201008000001020421
:1020C0000810200040404040404040000404040408
:1020D00004040400000810204080000000201008C4
:1020E00004020100007048080808F00000000030F9
:1020F00036010000C030C828E810E0000718272487
:1021000023140B000000C038E0000000203C230234
:102110000227382008F8888888700000203F202097
:1021200020110E00C03008080808380007182020C9
:102130002010080008F808080810E000203F2020C0
:1021400020100F0008F88888E8081000203F2020A1
:102150002320180008F88888E8081000203F200095
:1021600003000000C03008080838000007182020CD
:10217000221E020008F808000008F808203F21018C
:1021800001213F20000808F8080800000020203F37
:102190002020000000000808F8080800C0808080A7
:1021A0007F00000008F888C028180800203F2001A0
:1021B0002638200008F8080000000000203F2020FA
:1021C0002020300008F8F800F8F80800203F003F11
:1021D000003F200008F830C00008F808203F200029
:1021E00007183F00E01008080810E0000F1020203A
:1021F00020100F0008F808080808F000203F21010F
:1022000001010000E01008080810E0000F18242465
:1022100038504F0008F8888888887000203F2000D8
:10222000030C30200070880808083800003820218E
:1022300021221C00180808F8080818000000203F98
:102240002000000008F808000008F808001F2020FF
:1022500020201F000878880000C8380800000738D0
:102260000E010000F80800F80008F800033C070021
:10227000073C0300081868808068180820302C0389
:10228000032C30200838C800C83808000000203F60
:102290002000000010080808C8380800203826214F
:1022A00020201800000000FE020202000000007F53
:1022B00040404000000C30C0000000000000000161
:1022C0000638C00000020202FE000000004040404C
:1022D0007F00000000000402020204000000000071
:1022E00000000000000000000000000080808080EE
:1022F00080808080000202040000000000000000D6
:10230000000000000000808080800000001924226E
:1023100022223F2008F8008080000000003F1120AA
:1023200020110E000000008080800000000E1120AF
:1023300020201100000000808088F800000E11208D
:1023400020103F200000808080800000001F22229B
:1023500022221300008080F0888888180020203F07
:10236000202000000000808080808000006B94941A
:102370009493600008F8008080800000203F2100D6
:1023800000203F2000809898000000000020203F9F
:1023900020200000000000809898000000C080808D
:1023A000807F000008F8000080808000203F240229
:1023B0002D302000000808F8000000000020203F19
:1023C000202000008080808080808000203F2000CE
:1023D0003F20003F8080008080800000203F21005F
:1023E00000203F200000808080800000001F20200F
:1023F00020201F00808000808000000080FFA1203E
:1024000020110E000000008080808000000E11204E
:1024100020A0FF80808080008080800020203F21DD
:102420002000010000008080808080000033242490
:1024300024241900008080E0808000000000001F3C
:10244000202000008080000000808000001F2020ED
:1024500020103F20808080000080808000010E30AE
:102460000806010080800080008080800F300C030F
:102470000C300F0000808000808080000020312E12
:102480000E312000808080000080808080818E70EE
:102490001806010000808080808080000021302CA0
:1024A0002221300000000000807C020200000000B9
:1024B000003F404000000000FF000000000000005E
:1024C000FF0000000002027C800000000040403F4E
:1024D00000000000000601010202040400000000E8
:1024E00000000000042500000000FF1F5C00000049
:1024F000A00B0000602500005C00FF1F54040000DA
:10250000B00B0000640000006400000064000000E4
:102510000000000000000000000000000060064015
:102520000070064000600E4000700E4000A00640A3
:1025300000B0064000C0064000D0064000A00E409B
:1025400000000000000000000000900100000000FA
:10255000000000000000000000000000000000007B
:0400000500000411E2
:00000001FF
